{
  "contractName": "Evault",
  "abi": [
    {
      "anonymous": false,
      "inputs": [
        {
          "indexed": true,
          "internalType": "uint256",
          "name": "_documentId",
          "type": "uint256"
        }
      ],
      "name": "documentCreated",
      "type": "event"
    },
    {
      "inputs": [],
      "name": "documentCount",
      "outputs": [
        {
          "internalType": "uint256",
          "name": "",
          "type": "uint256"
        }
      ],
      "stateMutability": "view",
      "type": "function",
      "constant": true
    },
    {
      "inputs": [
        {
          "internalType": "uint256",
          "name": "",
          "type": "uint256"
        }
      ],
      "name": "documentList",
      "outputs": [
        {
          "internalType": "string",
          "name": "document_name",
          "type": "string"
        },
        {
          "internalType": "string",
          "name": "document_type",
          "type": "string"
        },
        {
          "internalType": "string",
          "name": "description",
          "type": "string"
        },
        {
          "internalType": "string",
          "name": "document_belongs_to",
          "type": "string"
        },
        {
          "internalType": "string",
          "name": "doc_address",
          "type": "string"
        },
        {
          "internalType": "string",
          "name": "phone",
          "type": "string"
        },
        {
          "internalType": "string",
          "name": "criminal_record",
          "type": "string"
        },
        {
          "internalType": "string",
          "name": "uid",
          "type": "string"
        },
        {
          "internalType": "string",
          "name": "update_date",
          "type": "string"
        },
        {
          "internalType": "string",
          "name": "filename",
          "type": "string"
        }
      ],
      "stateMutability": "view",
      "type": "function",
      "constant": true
    },
    {
      "inputs": [
        {
          "internalType": "string",
          "name": "name",
          "type": "string"
        },
        {
          "internalType": "string",
          "name": "doc_type",
          "type": "string"
        },
        {
          "internalType": "string",
          "name": "desc",
          "type": "string"
        },
        {
          "internalType": "string",
          "name": "belongs",
          "type": "string"
        },
        {
          "internalType": "string",
          "name": "doc_address",
          "type": "string"
        },
        {
          "internalType": "string",
          "name": "phone",
          "type": "string"
        },
        {
          "internalType": "string",
          "name": "criminal_record",
          "type": "string"
        },
        {
          "internalType": "string",
          "name": "uid",
          "type": "string"
        },
        {
          "internalType": "string",
          "name": "update_date",
          "type": "string"
        },
        {
          "internalType": "string",
          "name": "filename",
          "type": "string"
        }
      ],
      "name": "saveDocument",
      "outputs": [],
      "stateMutability": "nonpayable",
      "type": "function"
    },
    {
      "inputs": [],
      "name": "getDocumentCount",
      "outputs": [
        {
          "internalType": "uint256",
          "name": "",
          "type": "uint256"
        }
      ],
      "stateMutability": "view",
      "type": "function",
      "constant": true
    },
    {
      "inputs": [
        {
          "internalType": "uint256",
          "name": "i",
          "type": "uint256"
        }
      ],
      "name": "getName",
      "outputs": [
        {
          "internalType": "string",
          "name": "",
          "type": "string"
        }
      ],
      "stateMutability": "view",
      "type": "function",
      "constant": true
    },
    {
      "inputs": [
        {
          "internalType": "uint256",
          "name": "i",
          "type": "uint256"
        }
      ],
      "name": "getType",
      "outputs": [
        {
          "internalType": "string",
          "name": "",
          "type": "string"
        }
      ],
      "stateMutability": "view",
      "type": "function",
      "constant": true
    },
    {
      "inputs": [
        {
          "internalType": "uint256",
          "name": "i",
          "type": "uint256"
        }
      ],
      "name": "getDesc",
      "outputs": [
        {
          "internalType": "string",
          "name": "",
          "type": "string"
        }
      ],
      "stateMutability": "view",
      "type": "function",
      "constant": true
    },
    {
      "inputs": [
        {
          "internalType": "uint256",
          "name": "i",
          "type": "uint256"
        }
      ],
      "name": "getBelongs",
      "outputs": [
        {
          "internalType": "string",
          "name": "",
          "type": "string"
        }
      ],
      "stateMutability": "view",
      "type": "function",
      "constant": true
    },
    {
      "inputs": [
        {
          "internalType": "uint256",
          "name": "i",
          "type": "uint256"
        }
      ],
      "name": "getAddress",
      "outputs": [
        {
          "internalType": "string",
          "name": "",
          "type": "string"
        }
      ],
      "stateMutability": "view",
      "type": "function",
      "constant": true
    },
    {
      "inputs": [
        {
          "internalType": "uint256",
          "name": "i",
          "type": "uint256"
        }
      ],
      "name": "getPhone",
      "outputs": [
        {
          "internalType": "string",
          "name": "",
          "type": "string"
        }
      ],
      "stateMutability": "view",
      "type": "function",
      "constant": true
    },
    {
      "inputs": [
        {
          "internalType": "uint256",
          "name": "i",
          "type": "uint256"
        }
      ],
      "name": "getCriminalRecord",
      "outputs": [
        {
          "internalType": "string",
          "name": "",
          "type": "string"
        }
      ],
      "stateMutability": "view",
      "type": "function",
      "constant": true
    },
    {
      "inputs": [
        {
          "internalType": "uint256",
          "name": "i",
          "type": "uint256"
        }
      ],
      "name": "getUid",
      "outputs": [
        {
          "internalType": "string",
          "name": "",
          "type": "string"
        }
      ],
      "stateMutability": "view",
      "type": "function",
      "constant": true
    },
    {
      "inputs": [
        {
          "internalType": "uint256",
          "name": "i",
          "type": "uint256"
        }
      ],
      "name": "getDate",
      "outputs": [
        {
          "internalType": "string",
          "name": "",
          "type": "string"
        }
      ],
      "stateMutability": "view",
      "type": "function",
      "constant": true
    },
    {
      "inputs": [
        {
          "internalType": "uint256",
          "name": "i",
          "type": "uint256"
        }
      ],
      "name": "getFile",
      "outputs": [
        {
          "internalType": "string",
          "name": "",
          "type": "string"
        }
      ],
      "stateMutability": "view",
      "type": "function",
      "constant": true
    }
  ],
  "bytecode": "0x60806040526000805534801561001457600080fd5b50614ead806100246000396000f3fe608060405234801561001057600080fd5b5060043610610107576000357c0100000000000000000000000000000000000000000000000000000000900480636b8ff574116100a9578063a5b16b2e11610083578063a5b16b2e146102e3578063a81b743214610301578063b93f9b0a1461031d578063eb03b5781461034d57610107565b80636b8ff574146102535780638bf29b481461028357806398378351146102b357610107565b80632e7d44b5116100e55780632e7d44b51461019c5780633140c27d146101cc5780633d1c2273146102055780634036ab781461022357610107565b80632b57298b1461010c5780632bfda3131461013c5780632cca4ba71461016c575b600080fd5b61012660048036038101906101219190614605565b61037d565b60405161013391906146c2565b60405180910390f35b61015660048036038101906101519190614605565b610964565b60405161016391906146c2565b60405180910390f35b61018660048036038101906101819190614605565b610f4b565b60405161019391906146c2565b60405180910390f35b6101b660048036038101906101b19190614605565b611531565b6040516101c391906146c2565b60405180910390f35b6101e660048036038101906101e19190614605565b611b17565b6040516101fc9a999897969594939291906146e4565b60405180910390f35b61020d6120bb565b60405161021a91906147d5565b60405180910390f35b61023d60048036038101906102389190614605565b6120c4565b60405161024a91906146c2565b60405180910390f35b61026d60048036038101906102689190614605565b6126aa565b60405161027a91906146c2565b60405180910390f35b61029d60048036038101906102989190614605565b612c90565b6040516102aa91906146c2565b60405180910390f35b6102cd60048036038101906102c89190614605565b613276565b6040516102da91906146c2565b60405180910390f35b6102eb61385c565b6040516102f891906147d5565b60405180910390f35b61031b60048036038101906103169190614925565b613862565b005b61033760048036038101906103329190614605565b6139ef565b60405161034491906146c2565b60405180910390f35b61036760048036038101906103629190614605565b613fd5565b60405161037491906146c2565b60405180910390f35b6060600060016000848152602001908152602001600020604051806101400160405290816000820180546103b090614b4b565b80601f01602080910402602001604051908101604052809291908181526020018280546103dc90614b4b565b80156104295780601f106103fe57610100808354040283529160200191610429565b820191906000526020600020905b81548152906001019060200180831161040c57829003601f168201915b5050505050815260200160018201805461044290614b4b565b80601f016020809104026020016040519081016040528092919081815260200182805461046e90614b4b565b80156104bb5780601f10610490576101008083540402835291602001916104bb565b820191906000526020600020905b81548152906001019060200180831161049e57829003601f168201915b505050505081526020016002820180546104d490614b4b565b80601f016020809104026020016040519081016040528092919081815260200182805461050090614b4b565b801561054d5780601f106105225761010080835404028352916020019161054d565b820191906000526020600020905b81548152906001019060200180831161053057829003601f168201915b5050505050815260200160038201805461056690614b4b565b80601f016020809104026020016040519081016040528092919081815260200182805461059290614b4b565b80156105df5780601f106105b4576101008083540402835291602001916105df565b820191906000526020600020905b8154815290600101906020018083116105c257829003601f168201915b505050505081526020016004820180546105f890614b4b565b80601f016020809104026020016040519081016040528092919081815260200182805461062490614b4b565b80156106715780601f1061064657610100808354040283529160200191610671565b820191906000526020600020905b81548152906001019060200180831161065457829003601f168201915b5050505050815260200160058201805461068a90614b4b565b80601f01602080910402602001604051908101604052809291908181526020018280546106b690614b4b565b80156107035780601f106106d857610100808354040283529160200191610703565b820191906000526020600020905b8154815290600101906020018083116106e657829003601f168201915b5050505050815260200160068201805461071c90614b4b565b80601f016020809104026020016040519081016040528092919081815260200182805461074890614b4b565b80156107955780601f1061076a57610100808354040283529160200191610795565b820191906000526020600020905b81548152906001019060200180831161077857829003601f168201915b505050505081526020016007820180546107ae90614b4b565b80601f01602080910402602001604051908101604052809291908181526020018280546107da90614b4b565b80156108275780601f106107fc57610100808354040283529160200191610827565b820191906000526020600020905b81548152906001019060200180831161080a57829003601f168201915b5050505050815260200160088201805461084090614b4b565b80601f016020809104026020016040519081016040528092919081815260200182805461086c90614b4b565b80156108b95780601f1061088e576101008083540402835291602001916108b9565b820191906000526020600020905b81548152906001019060200180831161089c57829003601f168201915b505050505081526020016009820180546108d290614b4b565b80601f01602080910402602001604051908101604052809291908181526020018280546108fe90614b4b565b801561094b5780601f106109205761010080835404028352916020019161094b565b820191906000526020600020905b81548152906001019060200180831161092e57829003601f168201915b5050505050815250509050806101000151915050919050565b60606000600160008481526020019081526020016000206040518061014001604052908160008201805461099790614b4b565b80601f01602080910402602001604051908101604052809291908181526020018280546109c390614b4b565b8015610a105780601f106109e557610100808354040283529160200191610a10565b820191906000526020600020905b8154815290600101906020018083116109f357829003601f168201915b50505050508152602001600182018054610a2990614b4b565b80601f0160208091040260200160405190810160405280929190818152602001828054610a5590614b4b565b8015610aa25780601f10610a7757610100808354040283529160200191610aa2565b820191906000526020600020905b815481529060010190602001808311610a8557829003601f168201915b50505050508152602001600282018054610abb90614b4b565b80601f0160208091040260200160405190810160405280929190818152602001828054610ae790614b4b565b8015610b345780601f10610b0957610100808354040283529160200191610b34565b820191906000526020600020905b815481529060010190602001808311610b1757829003601f168201915b50505050508152602001600382018054610b4d90614b4b565b80601f0160208091040260200160405190810160405280929190818152602001828054610b7990614b4b565b8015610bc65780601f10610b9b57610100808354040283529160200191610bc6565b820191906000526020600020905b815481529060010190602001808311610ba957829003601f168201915b50505050508152602001600482018054610bdf90614b4b565b80601f0160208091040260200160405190810160405280929190818152602001828054610c0b90614b4b565b8015610c585780601f10610c2d57610100808354040283529160200191610c58565b820191906000526020600020905b815481529060010190602001808311610c3b57829003601f168201915b50505050508152602001600582018054610c7190614b4b565b80601f0160208091040260200160405190810160405280929190818152602001828054610c9d90614b4b565b8015610cea5780601f10610cbf57610100808354040283529160200191610cea565b820191906000526020600020905b815481529060010190602001808311610ccd57829003601f168201915b50505050508152602001600682018054610d0390614b4b565b80601f0160208091040260200160405190810160405280929190818152602001828054610d2f90614b4b565b8015610d7c5780601f10610d5157610100808354040283529160200191610d7c565b820191906000526020600020905b815481529060010190602001808311610d5f57829003601f168201915b50505050508152602001600782018054610d9590614b4b565b80601f0160208091040260200160405190810160405280929190818152602001828054610dc190614b4b565b8015610e0e5780601f10610de357610100808354040283529160200191610e0e565b820191906000526020600020905b815481529060010190602001808311610df157829003601f168201915b50505050508152602001600882018054610e2790614b4b565b80601f0160208091040260200160405190810160405280929190818152602001828054610e5390614b4b565b8015610ea05780601f10610e7557610100808354040283529160200191610ea0565b820191906000526020600020905b815481529060010190602001808311610e8357829003601f168201915b50505050508152602001600982018054610eb990614b4b565b80601f0160208091040260200160405190810160405280929190818152602001828054610ee590614b4b565b8015610f325780601f10610f0757610100808354040283529160200191610f32565b820191906000526020600020905b815481529060010190602001808311610f1557829003601f168201915b5050505050815250509050806101200151915050919050565b606060006001600084815260200190815260200160002060405180610140016040529081600082018054610f7e90614b4b565b80601f0160208091040260200160405190810160405280929190818152602001828054610faa90614b4b565b8015610ff75780601f10610fcc57610100808354040283529160200191610ff7565b820191906000526020600020905b815481529060010190602001808311610fda57829003601f168201915b5050505050815260200160018201805461101090614b4b565b80601f016020809104026020016040519081016040528092919081815260200182805461103c90614b4b565b80156110895780601f1061105e57610100808354040283529160200191611089565b820191906000526020600020905b81548152906001019060200180831161106c57829003601f168201915b505050505081526020016002820180546110a290614b4b565b80601f01602080910402602001604051908101604052809291908181526020018280546110ce90614b4b565b801561111b5780601f106110f05761010080835404028352916020019161111b565b820191906000526020600020905b8154815290600101906020018083116110fe57829003601f168201915b5050505050815260200160038201805461113490614b4b565b80601f016020809104026020016040519081016040528092919081815260200182805461116090614b4b565b80156111ad5780601f10611182576101008083540402835291602001916111ad565b820191906000526020600020905b81548152906001019060200180831161119057829003601f168201915b505050505081526020016004820180546111c690614b4b565b80601f01602080910402602001604051908101604052809291908181526020018280546111f290614b4b565b801561123f5780601f106112145761010080835404028352916020019161123f565b820191906000526020600020905b81548152906001019060200180831161122257829003601f168201915b5050505050815260200160058201805461125890614b4b565b80601f016020809104026020016040519081016040528092919081815260200182805461128490614b4b565b80156112d15780601f106112a6576101008083540402835291602001916112d1565b820191906000526020600020905b8154815290600101906020018083116112b457829003601f168201915b505050505081526020016006820180546112ea90614b4b565b80601f016020809104026020016040519081016040528092919081815260200182805461131690614b4b565b80156113635780601f1061133857610100808354040283529160200191611363565b820191906000526020600020905b81548152906001019060200180831161134657829003601f168201915b5050505050815260200160078201805461137c90614b4b565b80601f01602080910402602001604051908101604052809291908181526020018280546113a890614b4b565b80156113f55780601f106113ca576101008083540402835291602001916113f5565b820191906000526020600020905b8154815290600101906020018083116113d857829003601f168201915b5050505050815260200160088201805461140e90614b4b565b80601f016020809104026020016040519081016040528092919081815260200182805461143a90614b4b565b80156114875780601f1061145c57610100808354040283529160200191611487565b820191906000526020600020905b81548152906001019060200180831161146a57829003601f168201915b505050505081526020016009820180546114a090614b4b565b80601f01602080910402602001604051908101604052809291908181526020018280546114cc90614b4b565b80156115195780601f106114ee57610100808354040283529160200191611519565b820191906000526020600020905b8154815290600101906020018083116114fc57829003601f168201915b50505050508152505090508060400151915050919050565b60606000600160008481526020019081526020016000206040518061014001604052908160008201805461156490614b4b565b80601f016020809104026020016040519081016040528092919081815260200182805461159090614b4b565b80156115dd5780601f106115b2576101008083540402835291602001916115dd565b820191906000526020600020905b8154815290600101906020018083116115c057829003601f168201915b505050505081526020016001820180546115f690614b4b565b80601f016020809104026020016040519081016040528092919081815260200182805461162290614b4b565b801561166f5780601f106116445761010080835404028352916020019161166f565b820191906000526020600020905b81548152906001019060200180831161165257829003601f168201915b5050505050815260200160028201805461168890614b4b565b80601f01602080910402602001604051908101604052809291908181526020018280546116b490614b4b565b80156117015780601f106116d657610100808354040283529160200191611701565b820191906000526020600020905b8154815290600101906020018083116116e457829003601f168201915b5050505050815260200160038201805461171a90614b4b565b80601f016020809104026020016040519081016040528092919081815260200182805461174690614b4b565b80156117935780601f1061176857610100808354040283529160200191611793565b820191906000526020600020905b81548152906001019060200180831161177657829003601f168201915b505050505081526020016004820180546117ac90614b4b565b80601f01602080910402602001604051908101604052809291908181526020018280546117d890614b4b565b80156118255780601f106117fa57610100808354040283529160200191611825565b820191906000526020600020905b81548152906001019060200180831161180857829003601f168201915b5050505050815260200160058201805461183e90614b4b565b80601f016020809104026020016040519081016040528092919081815260200182805461186a90614b4b565b80156118b75780601f1061188c576101008083540402835291602001916118b7565b820191906000526020600020905b81548152906001019060200180831161189a57829003601f168201915b505050505081526020016006820180546118d090614b4b565b80601f01602080910402602001604051908101604052809291908181526020018280546118fc90614b4b565b80156119495780601f1061191e57610100808354040283529160200191611949565b820191906000526020600020905b81548152906001019060200180831161192c57829003601f168201915b5050505050815260200160078201805461196290614b4b565b80601f016020809104026020016040519081016040528092919081815260200182805461198e90614b4b565b80156119db5780601f106119b0576101008083540402835291602001916119db565b820191906000526020600020905b8154815290600101906020018083116119be57829003601f168201915b505050505081526020016008820180546119f490614b4b565b80601f0160208091040260200160405190810160405280929190818152602001828054611a2090614b4b565b8015611a6d5780601f10611a4257610100808354040283529160200191611a6d565b820191906000526020600020905b815481529060010190602001808311611a5057829003601f168201915b50505050508152602001600982018054611a8690614b4b565b80601f0160208091040260200160405190810160405280929190818152602001828054611ab290614b4b565b8015611aff5780601f10611ad457610100808354040283529160200191611aff565b820191906000526020600020905b815481529060010190602001808311611ae257829003601f168201915b50505050508152505090508060a00151915050919050565b6001602052806000526040600020600091509050806000018054611b3a90614b4b565b80601f0160208091040260200160405190810160405280929190818152602001828054611b6690614b4b565b8015611bb35780601f10611b8857610100808354040283529160200191611bb3565b820191906000526020600020905b815481529060010190602001808311611b9657829003601f168201915b505050505090806001018054611bc890614b4b565b80601f0160208091040260200160405190810160405280929190818152602001828054611bf490614b4b565b8015611c415780601f10611c1657610100808354040283529160200191611c41565b820191906000526020600020905b815481529060010190602001808311611c2457829003601f168201915b505050505090806002018054611c5690614b4b565b80601f0160208091040260200160405190810160405280929190818152602001828054611c8290614b4b565b8015611ccf5780601f10611ca457610100808354040283529160200191611ccf565b820191906000526020600020905b815481529060010190602001808311611cb257829003601f168201915b505050505090806003018054611ce490614b4b565b80601f0160208091040260200160405190810160405280929190818152602001828054611d1090614b4b565b8015611d5d5780601f10611d3257610100808354040283529160200191611d5d565b820191906000526020600020905b815481529060010190602001808311611d4057829003601f168201915b505050505090806004018054611d7290614b4b565b80601f0160208091040260200160405190810160405280929190818152602001828054611d9e90614b4b565b8015611deb5780601f10611dc057610100808354040283529160200191611deb565b820191906000526020600020905b815481529060010190602001808311611dce57829003601f168201915b505050505090806005018054611e0090614b4b565b80601f0160208091040260200160405190810160405280929190818152602001828054611e2c90614b4b565b8015611e795780601f10611e4e57610100808354040283529160200191611e79565b820191906000526020600020905b815481529060010190602001808311611e5c57829003601f168201915b505050505090806006018054611e8e90614b4b565b80601f0160208091040260200160405190810160405280929190818152602001828054611eba90614b4b565b8015611f075780601f10611edc57610100808354040283529160200191611f07565b820191906000526020600020905b815481529060010190602001808311611eea57829003601f168201915b505050505090806007018054611f1c90614b4b565b80601f0160208091040260200160405190810160405280929190818152602001828054611f4890614b4b565b8015611f955780601f10611f6a57610100808354040283529160200191611f95565b820191906000526020600020905b815481529060010190602001808311611f7857829003601f168201915b505050505090806008018054611faa90614b4b565b80601f0160208091040260200160405190810160405280929190818152602001828054611fd690614b4b565b80156120235780601f10611ff857610100808354040283529160200191612023565b820191906000526020600020905b81548152906001019060200180831161200657829003601f168201915b50505050509080600901805461203890614b4b565b80601f016020809104026020016040519081016040528092919081815260200182805461206490614b4b565b80156120b15780601f10612086576101008083540402835291602001916120b1565b820191906000526020600020905b81548152906001019060200180831161209457829003601f168201915b505050505090508a565b60008054905090565b6060600060016000848152602001908152602001600020604051806101400160405290816000820180546120f790614b4b565b80601f016020809104026020016040519081016040528092919081815260200182805461212390614b4b565b80156121705780601f1061214557610100808354040283529160200191612170565b820191906000526020600020905b81548152906001019060200180831161215357829003601f168201915b5050505050815260200160018201805461218990614b4b565b80601f01602080910402602001604051908101604052809291908181526020018280546121b590614b4b565b80156122025780601f106121d757610100808354040283529160200191612202565b820191906000526020600020905b8154815290600101906020018083116121e557829003601f168201915b5050505050815260200160028201805461221b90614b4b565b80601f016020809104026020016040519081016040528092919081815260200182805461224790614b4b565b80156122945780601f1061226957610100808354040283529160200191612294565b820191906000526020600020905b81548152906001019060200180831161227757829003601f168201915b505050505081526020016003820180546122ad90614b4b565b80601f01602080910402602001604051908101604052809291908181526020018280546122d990614b4b565b80156123265780601f106122fb57610100808354040283529160200191612326565b820191906000526020600020905b81548152906001019060200180831161230957829003601f168201915b5050505050815260200160048201805461233f90614b4b565b80601f016020809104026020016040519081016040528092919081815260200182805461236b90614b4b565b80156123b85780601f1061238d576101008083540402835291602001916123b8565b820191906000526020600020905b81548152906001019060200180831161239b57829003601f168201915b505050505081526020016005820180546123d190614b4b565b80601f01602080910402602001604051908101604052809291908181526020018280546123fd90614b4b565b801561244a5780601f1061241f5761010080835404028352916020019161244a565b820191906000526020600020905b81548152906001019060200180831161242d57829003601f168201915b5050505050815260200160068201805461246390614b4b565b80601f016020809104026020016040519081016040528092919081815260200182805461248f90614b4b565b80156124dc5780601f106124b1576101008083540402835291602001916124dc565b820191906000526020600020905b8154815290600101906020018083116124bf57829003601f168201915b505050505081526020016007820180546124f590614b4b565b80601f016020809104026020016040519081016040528092919081815260200182805461252190614b4b565b801561256e5780601f106125435761010080835404028352916020019161256e565b820191906000526020600020905b81548152906001019060200180831161255157829003601f168201915b5050505050815260200160088201805461258790614b4b565b80601f01602080910402602001604051908101604052809291908181526020018280546125b390614b4b565b80156126005780601f106125d557610100808354040283529160200191612600565b820191906000526020600020905b8154815290600101906020018083116125e357829003601f168201915b5050505050815260200160098201805461261990614b4b565b80601f016020809104026020016040519081016040528092919081815260200182805461264590614b4b565b80156126925780601f1061266757610100808354040283529160200191612692565b820191906000526020600020905b81548152906001019060200180831161267557829003601f168201915b50505050508152505090508060200151915050919050565b6060600060016000848152602001908152602001600020604051806101400160405290816000820180546126dd90614b4b565b80601f016020809104026020016040519081016040528092919081815260200182805461270990614b4b565b80156127565780601f1061272b57610100808354040283529160200191612756565b820191906000526020600020905b81548152906001019060200180831161273957829003601f168201915b5050505050815260200160018201805461276f90614b4b565b80601f016020809104026020016040519081016040528092919081815260200182805461279b90614b4b565b80156127e85780601f106127bd576101008083540402835291602001916127e8565b820191906000526020600020905b8154815290600101906020018083116127cb57829003601f168201915b5050505050815260200160028201805461280190614b4b565b80601f016020809104026020016040519081016040528092919081815260200182805461282d90614b4b565b801561287a5780601f1061284f5761010080835404028352916020019161287a565b820191906000526020600020905b81548152906001019060200180831161285d57829003601f168201915b5050505050815260200160038201805461289390614b4b565b80601f01602080910402602001604051908101604052809291908181526020018280546128bf90614b4b565b801561290c5780601f106128e15761010080835404028352916020019161290c565b820191906000526020600020905b8154815290600101906020018083116128ef57829003601f168201915b5050505050815260200160048201805461292590614b4b565b80601f016020809104026020016040519081016040528092919081815260200182805461295190614b4b565b801561299e5780601f106129735761010080835404028352916020019161299e565b820191906000526020600020905b81548152906001019060200180831161298157829003601f168201915b505050505081526020016005820180546129b790614b4b565b80601f01602080910402602001604051908101604052809291908181526020018280546129e390614b4b565b8015612a305780601f10612a0557610100808354040283529160200191612a30565b820191906000526020600020905b815481529060010190602001808311612a1357829003601f168201915b50505050508152602001600682018054612a4990614b4b565b80601f0160208091040260200160405190810160405280929190818152602001828054612a7590614b4b565b8015612ac25780601f10612a9757610100808354040283529160200191612ac2565b820191906000526020600020905b815481529060010190602001808311612aa557829003601f168201915b50505050508152602001600782018054612adb90614b4b565b80601f0160208091040260200160405190810160405280929190818152602001828054612b0790614b4b565b8015612b545780601f10612b2957610100808354040283529160200191612b54565b820191906000526020600020905b815481529060010190602001808311612b3757829003601f168201915b50505050508152602001600882018054612b6d90614b4b565b80601f0160208091040260200160405190810160405280929190818152602001828054612b9990614b4b565b8015612be65780601f10612bbb57610100808354040283529160200191612be6565b820191906000526020600020905b815481529060010190602001808311612bc957829003601f168201915b50505050508152602001600982018054612bff90614b4b565b80601f0160208091040260200160405190810160405280929190818152602001828054612c2b90614b4b565b8015612c785780601f10612c4d57610100808354040283529160200191612c78565b820191906000526020600020905b815481529060010190602001808311612c5b57829003601f168201915b50505050508152505090508060000151915050919050565b606060006001600084815260200190815260200160002060405180610140016040529081600082018054612cc390614b4b565b80601f0160208091040260200160405190810160405280929190818152602001828054612cef90614b4b565b8015612d3c5780601f10612d1157610100808354040283529160200191612d3c565b820191906000526020600020905b815481529060010190602001808311612d1f57829003601f168201915b50505050508152602001600182018054612d5590614b4b565b80601f0160208091040260200160405190810160405280929190818152602001828054612d8190614b4b565b8015612dce5780601f10612da357610100808354040283529160200191612dce565b820191906000526020600020905b815481529060010190602001808311612db157829003601f168201915b50505050508152602001600282018054612de790614b4b565b80601f0160208091040260200160405190810160405280929190818152602001828054612e1390614b4b565b8015612e605780601f10612e3557610100808354040283529160200191612e60565b820191906000526020600020905b815481529060010190602001808311612e4357829003601f168201915b50505050508152602001600382018054612e7990614b4b565b80601f0160208091040260200160405190810160405280929190818152602001828054612ea590614b4b565b8015612ef25780601f10612ec757610100808354040283529160200191612ef2565b820191906000526020600020905b815481529060010190602001808311612ed557829003601f168201915b50505050508152602001600482018054612f0b90614b4b565b80601f0160208091040260200160405190810160405280929190818152602001828054612f3790614b4b565b8015612f845780601f10612f5957610100808354040283529160200191612f84565b820191906000526020600020905b815481529060010190602001808311612f6757829003601f168201915b50505050508152602001600582018054612f9d90614b4b565b80601f0160208091040260200160405190810160405280929190818152602001828054612fc990614b4b565b80156130165780601f10612feb57610100808354040283529160200191613016565b820191906000526020600020905b815481529060010190602001808311612ff957829003601f168201915b5050505050815260200160068201805461302f90614b4b565b80601f016020809104026020016040519081016040528092919081815260200182805461305b90614b4b565b80156130a85780601f1061307d576101008083540402835291602001916130a8565b820191906000526020600020905b81548152906001019060200180831161308b57829003601f168201915b505050505081526020016007820180546130c190614b4b565b80601f01602080910402602001604051908101604052809291908181526020018280546130ed90614b4b565b801561313a5780601f1061310f5761010080835404028352916020019161313a565b820191906000526020600020905b81548152906001019060200180831161311d57829003601f168201915b5050505050815260200160088201805461315390614b4b565b80601f016020809104026020016040519081016040528092919081815260200182805461317f90614b4b565b80156131cc5780601f106131a1576101008083540402835291602001916131cc565b820191906000526020600020905b8154815290600101906020018083116131af57829003601f168201915b505050505081526020016009820180546131e590614b4b565b80601f016020809104026020016040519081016040528092919081815260200182805461321190614b4b565b801561325e5780601f106132335761010080835404028352916020019161325e565b820191906000526020600020905b81548152906001019060200180831161324157829003601f168201915b50505050508152505090508060600151915050919050565b6060600060016000848152602001908152602001600020604051806101400160405290816000820180546132a990614b4b565b80601f01602080910402602001604051908101604052809291908181526020018280546132d590614b4b565b80156133225780601f106132f757610100808354040283529160200191613322565b820191906000526020600020905b81548152906001019060200180831161330557829003601f168201915b5050505050815260200160018201805461333b90614b4b565b80601f016020809104026020016040519081016040528092919081815260200182805461336790614b4b565b80156133b45780601f10613389576101008083540402835291602001916133b4565b820191906000526020600020905b81548152906001019060200180831161339757829003601f168201915b505050505081526020016002820180546133cd90614b4b565b80601f01602080910402602001604051908101604052809291908181526020018280546133f990614b4b565b80156134465780601f1061341b57610100808354040283529160200191613446565b820191906000526020600020905b81548152906001019060200180831161342957829003601f168201915b5050505050815260200160038201805461345f90614b4b565b80601f016020809104026020016040519081016040528092919081815260200182805461348b90614b4b565b80156134d85780601f106134ad576101008083540402835291602001916134d8565b820191906000526020600020905b8154815290600101906020018083116134bb57829003601f168201915b505050505081526020016004820180546134f190614b4b565b80601f016020809104026020016040519081016040528092919081815260200182805461351d90614b4b565b801561356a5780601f1061353f5761010080835404028352916020019161356a565b820191906000526020600020905b81548152906001019060200180831161354d57829003601f168201915b5050505050815260200160058201805461358390614b4b565b80601f01602080910402602001604051908101604052809291908181526020018280546135af90614b4b565b80156135fc5780601f106135d1576101008083540402835291602001916135fc565b820191906000526020600020905b8154815290600101906020018083116135df57829003601f168201915b5050505050815260200160068201805461361590614b4b565b80601f016020809104026020016040519081016040528092919081815260200182805461364190614b4b565b801561368e5780601f106136635761010080835404028352916020019161368e565b820191906000526020600020905b81548152906001019060200180831161367157829003601f168201915b505050505081526020016007820180546136a790614b4b565b80601f01602080910402602001604051908101604052809291908181526020018280546136d390614b4b565b80156137205780601f106136f557610100808354040283529160200191613720565b820191906000526020600020905b81548152906001019060200180831161370357829003601f168201915b5050505050815260200160088201805461373990614b4b565b80601f016020809104026020016040519081016040528092919081815260200182805461376590614b4b565b80156137b25780601f10613787576101008083540402835291602001916137b2565b820191906000526020600020905b81548152906001019060200180831161379557829003601f168201915b505050505081526020016009820180546137cb90614b4b565b80601f01602080910402602001604051908101604052809291908181526020018280546137f790614b4b565b80156138445780601f1061381957610100808354040283529160200191613844565b820191906000526020600020905b81548152906001019060200180831161382757829003601f168201915b50505050508152505090508060c00151915050919050565b60005481565b6040518061014001604052808b81526020018a815260200189815260200188815260200187815260200186815260200185815260200184815260200183815260200182815250600160008054815260200190815260200160002060008201518160000190816138d19190614d2e565b5060208201518160010190816138e79190614d2e565b5060408201518160020190816138fd9190614d2e565b5060608201518160030190816139139190614d2e565b5060808201518160040190816139299190614d2e565b5060a082015181600501908161393f9190614d2e565b5060c08201518160060190816139559190614d2e565b5060e082015181600701908161396b9190614d2e565b506101008201518160080190816139829190614d2e565b506101208201518160090190816139999190614d2e565b509050506000547fca20fa89ecd777ef578bdadcd46514bb88e4aea978712d699cef73597408e7bc60405160405180910390a26000808154809291906139de90614e2f565b919050555050505050505050505050565b606060006001600084815260200190815260200160002060405180610140016040529081600082018054613a2290614b4b565b80601f0160208091040260200160405190810160405280929190818152602001828054613a4e90614b4b565b8015613a9b5780601f10613a7057610100808354040283529160200191613a9b565b820191906000526020600020905b815481529060010190602001808311613a7e57829003601f168201915b50505050508152602001600182018054613ab490614b4b565b80601f0160208091040260200160405190810160405280929190818152602001828054613ae090614b4b565b8015613b2d5780601f10613b0257610100808354040283529160200191613b2d565b820191906000526020600020905b815481529060010190602001808311613b1057829003601f168201915b50505050508152602001600282018054613b4690614b4b565b80601f0160208091040260200160405190810160405280929190818152602001828054613b7290614b4b565b8015613bbf5780601f10613b9457610100808354040283529160200191613bbf565b820191906000526020600020905b815481529060010190602001808311613ba257829003601f168201915b50505050508152602001600382018054613bd890614b4b565b80601f0160208091040260200160405190810160405280929190818152602001828054613c0490614b4b565b8015613c515780601f10613c2657610100808354040283529160200191613c51565b820191906000526020600020905b815481529060010190602001808311613c3457829003601f168201915b50505050508152602001600482018054613c6a90614b4b565b80601f0160208091040260200160405190810160405280929190818152602001828054613c9690614b4b565b8015613ce35780601f10613cb857610100808354040283529160200191613ce3565b820191906000526020600020905b815481529060010190602001808311613cc657829003601f168201915b50505050508152602001600582018054613cfc90614b4b565b80601f0160208091040260200160405190810160405280929190818152602001828054613d2890614b4b565b8015613d755780601f10613d4a57610100808354040283529160200191613d75565b820191906000526020600020905b815481529060010190602001808311613d5857829003601f168201915b50505050508152602001600682018054613d8e90614b4b565b80601f0160208091040260200160405190810160405280929190818152602001828054613dba90614b4b565b8015613e075780601f10613ddc57610100808354040283529160200191613e07565b820191906000526020600020905b815481529060010190602001808311613dea57829003601f168201915b50505050508152602001600782018054613e2090614b4b565b80601f0160208091040260200160405190810160405280929190818152602001828054613e4c90614b4b565b8015613e995780601f10613e6e57610100808354040283529160200191613e99565b820191906000526020600020905b815481529060010190602001808311613e7c57829003601f168201915b50505050508152602001600882018054613eb290614b4b565b80601f0160208091040260200160405190810160405280929190818152602001828054613ede90614b4b565b8015613f2b5780601f10613f0057610100808354040283529160200191613f2b565b820191906000526020600020905b815481529060010190602001808311613f0e57829003601f168201915b50505050508152602001600982018054613f4490614b4b565b80601f0160208091040260200160405190810160405280929190818152602001828054613f7090614b4b565b8015613fbd5780601f10613f9257610100808354040283529160200191613fbd565b820191906000526020600020905b815481529060010190602001808311613fa057829003601f168201915b50505050508152505090508060800151915050919050565b60606000600160008481526020019081526020016000206040518061014001604052908160008201805461400890614b4b565b80601f016020809104026020016040519081016040528092919081815260200182805461403490614b4b565b80156140815780601f1061405657610100808354040283529160200191614081565b820191906000526020600020905b81548152906001019060200180831161406457829003601f168201915b5050505050815260200160018201805461409a90614b4b565b80601f01602080910402602001604051908101604052809291908181526020018280546140c690614b4b565b80156141135780601f106140e857610100808354040283529160200191614113565b820191906000526020600020905b8154815290600101906020018083116140f657829003601f168201915b5050505050815260200160028201805461412c90614b4b565b80601f016020809104026020016040519081016040528092919081815260200182805461415890614b4b565b80156141a55780601f1061417a576101008083540402835291602001916141a5565b820191906000526020600020905b81548152906001019060200180831161418857829003601f168201915b505050505081526020016003820180546141be90614b4b565b80601f01602080910402602001604051908101604052809291908181526020018280546141ea90614b4b565b80156142375780601f1061420c57610100808354040283529160200191614237565b820191906000526020600020905b81548152906001019060200180831161421a57829003601f168201915b5050505050815260200160048201805461425090614b4b565b80601f016020809104026020016040519081016040528092919081815260200182805461427c90614b4b565b80156142c95780601f1061429e576101008083540402835291602001916142c9565b820191906000526020600020905b8154815290600101906020018083116142ac57829003601f168201915b505050505081526020016005820180546142e290614b4b565b80601f016020809104026020016040519081016040528092919081815260200182805461430e90614b4b565b801561435b5780601f106143305761010080835404028352916020019161435b565b820191906000526020600020905b81548152906001019060200180831161433e57829003601f168201915b5050505050815260200160068201805461437490614b4b565b80601f01602080910402602001604051908101604052809291908181526020018280546143a090614b4b565b80156143ed5780601f106143c2576101008083540402835291602001916143ed565b820191906000526020600020905b8154815290600101906020018083116143d057829003601f168201915b5050505050815260200160078201805461440690614b4b565b80601f016020809104026020016040519081016040528092919081815260200182805461443290614b4b565b801561447f5780601f106144545761010080835404028352916020019161447f565b820191906000526020600020905b81548152906001019060200180831161446257829003601f168201915b5050505050815260200160088201805461449890614b4b565b80601f01602080910402602001604051908101604052809291908181526020018280546144c490614b4b565b80156145115780601f106144e657610100808354040283529160200191614511565b820191906000526020600020905b8154815290600101906020018083116144f457829003601f168201915b5050505050815260200160098201805461452a90614b4b565b80601f016020809104026020016040519081016040528092919081815260200182805461455690614b4b565b80156145a35780601f10614578576101008083540402835291602001916145a3565b820191906000526020600020905b81548152906001019060200180831161458657829003601f168201915b50505050508152505090508060e00151915050919050565b6000604051905090565b600080fd5b600080fd5b6000819050919050565b6145e2816145cf565b81146145ed57600080fd5b50565b6000813590506145ff816145d9565b92915050565b60006020828403121561461b5761461a6145c5565b5b6000614629848285016145f0565b91505092915050565b600081519050919050565b600082825260208201905092915050565b60005b8381101561466c578082015181840152602081019050614651565b60008484015250505050565b6000601f19601f8301169050919050565b600061469482614632565b61469e818561463d565b93506146ae81856020860161464e565b6146b781614678565b840191505092915050565b600060208201905081810360008301526146dc8184614689565b905092915050565b60006101408201905081810360008301526146ff818d614689565b90508181036020830152614713818c614689565b90508181036040830152614727818b614689565b9050818103606083015261473b818a614689565b9050818103608083015261474f8189614689565b905081810360a08301526147638188614689565b905081810360c08301526147778187614689565b905081810360e083015261478b8186614689565b90508181036101008301526147a08185614689565b90508181036101208301526147b58184614689565b90509b9a5050505050505050505050565b6147cf816145cf565b82525050565b60006020820190506147ea60008301846147c6565b92915050565b600080fd5b600080fd5b7f4e487b7100000000000000000000000000000000000000000000000000000000600052604160045260246000fd5b61483282614678565b810181811067ffffffffffffffff82111715614851576148506147fa565b5b80604052505050565b60006148646145bb565b90506148708282614829565b919050565b600067ffffffffffffffff8211156148905761488f6147fa565b5b61489982614678565b9050602081019050919050565b82818337600083830152505050565b60006148c86148c384614875565b61485a565b9050828152602081018484840111156148e4576148e36147f5565b5b6148ef8482856148a6565b509392505050565b600082601f83011261490c5761490b6147f0565b5b813561491c8482602086016148b5565b91505092915050565b6000806000806000806000806000806101408b8d031215614949576149486145c5565b5b60008b013567ffffffffffffffff811115614967576149666145ca565b5b6149738d828e016148f7565b9a505060208b013567ffffffffffffffff811115614994576149936145ca565b5b6149a08d828e016148f7565b99505060408b013567ffffffffffffffff8111156149c1576149c06145ca565b5b6149cd8d828e016148f7565b98505060608b013567ffffffffffffffff8111156149ee576149ed6145ca565b5b6149fa8d828e016148f7565b97505060808b013567ffffffffffffffff811115614a1b57614a1a6145ca565b5b614a278d828e016148f7565b96505060a08b013567ffffffffffffffff811115614a4857614a476145ca565b5b614a548d828e016148f7565b95505060c08b013567ffffffffffffffff811115614a7557614a746145ca565b5b614a818d828e016148f7565b94505060e08b013567ffffffffffffffff811115614aa257614aa16145ca565b5b614aae8d828e016148f7565b9350506101008b013567ffffffffffffffff811115614ad057614acf6145ca565b5b614adc8d828e016148f7565b9250506101208b013567ffffffffffffffff811115614afe57614afd6145ca565b5b614b0a8d828e016148f7565b9150509295989b9194979a5092959850565b7f4e487b7100000000000000000000000000000000000000000000000000000000600052602260045260246000fd5b60006002820490506001821680614b6357607f821691505b602082108103614b7657614b75614b1c565b5b50919050565b60008190508160005260206000209050919050565b60006020601f8301049050919050565b60008160020a8302905092915050565b600060088302614be17fffffffffffffffffffffffffffffffffffffffffffffffffffffffffffffffff82614ba1565b614beb8683614ba1565b95508019841693508086168417925050509392505050565b6000819050919050565b6000614c28614c23614c1e846145cf565b614c03565b6145cf565b9050919050565b6000819050919050565b614c4283614c0d565b614c56614c4e82614c2f565b848454614bb1565b825550505050565b600090565b614c6b614c5e565b614c76818484614c39565b505050565b5b81811015614c9a57614c8f600082614c63565b600181019050614c7c565b5050565b601f821115614cdf57614cb081614b7c565b614cb984614b91565b81016020851015614cc8578190505b614cdc614cd485614b91565b830182614c7b565b50505b505050565b60008160020a8304905092915050565b6000614d0560001984600802614ce4565b1980831691505092915050565b6000614d1e8383614cf4565b9150826002028217905092915050565b614d3782614632565b67ffffffffffffffff811115614d5057614d4f6147fa565b5b614d5a8254614b4b565b614d65828285614c9e565b600060209050601f831160018114614d985760008415614d86578287015190505b614d908582614d12565b865550614df8565b601f198416614da686614b7c565b60005b82811015614dce57848901518255600182019150602085019450602081019050614da9565b86831015614deb5784890151614de7601f891682614cf4565b8355505b6001600288020188555050505b505050505050565b7f4e487b7100000000000000000000000000000000000000000000000000000000600052601160045260246000fd5b6000614e3a826145cf565b91507fffffffffffffffffffffffffffffffffffffffffffffffffffffffffffffffff8203614e6c57614e6b614e00565b5b60018201905091905056fea26469706673582212204d8e07fef620431e33fe7d576a0064fb590e0091e7a2de829c25ea00c44f5a3164736f6c63430008150033",
  "immutableReferences": {},
  "source": "pragma solidity >= 0.8.21 <= 0.8.21;\r\npragma experimental ABIEncoderV2;\r\n//evault solidity code\r\ncontract Evault {\r\n\r\n    uint public documentCount = 0; \r\n    mapping(uint => document) public documentList; \r\n     struct document\r\n     {\r\n       string document_name;\r\n       string document_type;\r\n       string description;\r\n       string document_belongs_to;\r\n       string doc_address;\r\n       string phone;\r\n       string criminal_record;\r\n       string uid;\r\n       string update_date;\r\n       string filename;\r\n     }\r\n \r\n   // events \r\n   event documentCreated(uint indexed _documentId);\r\n   \r\n   //function  to save legal document details to Blockchain\r\n   function saveDocument(string memory name, string memory doc_type, string memory desc, string memory belongs, string memory doc_address, string memory phone, string memory criminal_record,  string memory uid,  string memory update_date, string memory filename) public {\r\n      documentList[documentCount] = document(name, doc_type, desc, belongs, doc_address, phone, criminal_record, uid, update_date, filename);\r\n      emit documentCreated(documentCount);\r\n      documentCount++;\r\n    }\r\n\r\n     //get document count\r\n    function getDocumentCount()  public view returns (uint) {\r\n          return  documentCount;\r\n    }\r\n\r\n    function getName(uint i) public view returns (string memory) {\r\n        document memory doc = documentList[i];\r\n\treturn doc.document_name;\r\n    }\r\n\r\n    function getType(uint i) public view returns (string memory) {\r\n        document memory doc = documentList[i];\r\n\treturn doc.document_type;\r\n    }\r\n\r\n    function getDesc(uint i) public view returns (string memory) {\r\n        document memory doc = documentList[i];\r\n\treturn doc.description;\r\n    }\r\n\r\n    function getBelongs(uint i) public view returns (string memory) {\r\n        document memory doc = documentList[i];\r\n\treturn doc.document_belongs_to;\r\n    }\r\n\r\n    function getAddress(uint i) public view returns (string memory) {\r\n        document memory doc = documentList[i];\r\n\treturn doc.doc_address;\r\n    }\r\n\r\n    function getPhone(uint i) public view returns (string memory) {\r\n        document memory doc = documentList[i];\r\n\treturn doc.phone;\r\n    }\r\n\r\n    function getCriminalRecord(uint i) public view returns (string memory) {\r\n        document memory doc = documentList[i];\r\n\treturn doc.criminal_record;\r\n    }\r\n\r\n    function getUid(uint i) public view returns (string memory) {\r\n        document memory doc = documentList[i];\r\n\treturn doc.uid;\r\n    }\r\n\r\n    function getDate(uint i) public view returns (string memory) {\r\n        document memory doc = documentList[i];\r\n\treturn doc.update_date;\r\n    }\r\n\r\n    function getFile(uint i) public view returns (string memory) {\r\n        document memory doc = documentList[i];\r\n\treturn doc.filename;\r\n    }\r\n}",
  "sourcePath": "C:\\Users\\USER\\OneDrive\\Desktop\\Evault\\blocks\\contracts\\Evault.sol",
  "compiler": {
    "name": "solc",
    "version": "0.8.21+commit.d9974bed.Emscripten.clang"
  },
  "schemaVersion": "3.4.16",
  "updatedAt": "2025-04-16T06:10:36.198Z",
  "networkType": "ethereum",
  "devdoc": {
    "kind": "dev",
    "methods": {},
    "version": 1
  },
  "userdoc": {
    "kind": "user",
    "methods": {},
    "version": 1
  }
}